:020000022000DC
:1070000000000420757302005D7302005F730200CC
:1070100061730200637302006573020000000000E8
:107020000000000000000000000000006773020084
:1070300069730200000000006B7302006D730200B0
:1070400089BB02006F73020075C80200ADD8020050
:10705000C5D802006F7302006DC70200BDF50200C3
:107060006F7302006F73020061E602006F7302002B
:107070006F7302006F7302006F7302006F73020080
:107080006F7302000D9702006F7302006F730200AE
:107090006F7302006F730200D94A03006F7302001E
:1070A0006F7302006F7302006F7302006F73020050
:1070B0006F7302006F730200000000000000000008
:1070C0006F7302006F7302006F7302001DE4020011
:1070D0006F7302006F7302006F7302006F73020020
:1070E0006F7302006F7302006F73020000000000F4
:1070F000000000006F730200000000006F730200C8
:10710000000000000000000000000000000000007F
:10711000000000000000000000000000000000006F
:10712000000000000000000000000000000000005F
:10713000000000000000000000000000000000004F
:10714000000000000000000000000000000000003F
:10715000000000000000000000000000000000002F
:10716000000000000000000000000000000000001F
:10717000000000000000000000000000000000000F
:1071800000000000000000000000000000000000FF
:1071900000000000000000000000000000000000EF
:1071A00000000000000000000000000000000000DF
:1071B00000000000000000000000000000000000CF
:1071C00000000000000000000000000000000000BF
:1071D00000000000000000000000000000000000AF
:1071E000000000000000000000000000000000009F
:1071F000000000000000000000000000000000008F
:10720000354936480A1A02D0072291438D4634493F
:1072100034480A1A06D00722914381F309880222D2
:1072200082F3148830483149314A00F044F831483B
:107230003149324A00F03FF831483249324A00F0D1
:107240003AF832483249334A00F035F83248334987
:10725000334A00F030F833483349344A00F02BF811
:1072600033483449344A00F026F83448344900227F
:1072700000F02CF833483449002200F027F8334856
:107280003349091A082902DB002202604160314AB1
:1072900090471F481F49884205D00268043003B454
:1072A000904703BCF7E700208646EC46002000210B
:1072B000294A9047FEE7884207D0521A05D0037842
:1072C00001300B700131013AF9D17047884202D088
:1072D00002700130FAE770470000042000E003204C
:1072E0000000042000000420DC9903003432002058
:1072F000C8320020D0730200D0730200EC7C03007F
:10730000DC99030034320020343200205C7E03001C
:107310005C7E03005C7E03005C7E03005C7E0300F9
:107320005C7E03005C7E03005C7E0300DA99030050
:10733000709A0300C8320020C8320020C8320020F2
:1073400030460020304600203046002030460020E5
:10735000306600209D73020041110300FEE7FEE746
:10736000FEE7FEE7FEE7FEE7FEE7FEE7FEE7FEE7F5
:1073700000F002B8FFF7FCBF0F484FF00701884349
:1073800085460E4880470E48016841F4700101604F
:10739000BFF34F8FBFF36F8FFFF732BF09480A4922
:1073A0000A4A884207D0521A05D0037801300B7080
:1073B0000131013AF9D170470000042089B302007D
:1073C00088ED00E0487E03002032002034320020A7
:1073D00000B585B00190019B002B0AD0074B43F00C
:1073E00001030393019B9B010293039B029898471F
:1073F00000E000BF05B05DF804FB00BF707E030035
:1074000000B583B00190019B002B0AD04FF47A7035
:10741000FFF7DEFF019B013B0193019B002BF5D1A0
:1074200000E000BF03B05DF804FB08B50AF06EF899
:1074300000BF08BD00B589B0039002910192019B85
:10744000002B33D00023079303230693029A079B54
:107450001344019A194600200AF008F80590079A8B
:10746000059B13440793019A059BD31A0193059B2F
:10747000002B13D10F4B1B7883F00103DBB2002BE1
:1074800013D10120FFF7BCFF069B013B0693069B2F
:10749000002B03D1074B00221A7007E0054B012295
:1074A0001A70019B002BD1D100E000BF00BF09B0D2
:1074B0005DF804FBC832002000B585B0039002914E
:1074C000054B00934023054A0299039800F012F8F7
:1074D00000BF05B05DF804FB35740200CC3200201B
:1074E00082B0019000BF02B0704782B0019000BF2F
:1074F00002B0704700B5A1B00590049103920293C9
:10750000049803F021F8039B1593029B1693002324
:10751000179300238DF8603000231993229B1A9350
:1075200000231F930FA91F9B0822049803F0CAF899
:1075300008231F93119B1293BDF84030ADF84C30D7
:10754000BDF84230ADF84E3000238DF851309DF833
:107550003C3003F00303DBB2012B26D10F9BC3F3B6
:1075600095231C939DF83C30C3F3C203DBB28DF826
:107570005030BDF83C30C3F38313DBB21B931B9B2D
:107580009A0009A91F9B049803F09CF81B9B9B0081
:107590001F9A13441F9312AA09A915AB009313460F
:1075A0001B9A1C9800F084FF2FE09DF83C3003F0FC
:1075B0000303DBB2022B28D1BDF83E30C3F389139D
:1075C0009BB21E939DF83C30C3F3C203DBB28DF82F
:1075D00050301E9B082B28BF08231D9307A91F9B13
:1075E0001D9A049803F06EF81F9A1D9B13441F9375
:1075F0001E9A1D9BD31A1E9315AB12AA07A81D999C
:1076000000F0F8FF1E9B002BE3D1049802F0ABFFC3
:1076100000BF21B05DF804FB82B00190019BDB68E4
:1076200001225A7100BF02B07047000000B583B05C
:107630004FF0FF330193FFF7F8FE0421054800F0F7
:1076400053FE01900348FFF7E7FF00BF03B05DF86A
:1076500004FB00BF387E030000B583B001900091A9
:10766000019B1B681B6800990198984700BF03B0F5
:107670005DF804FB00B583B00190019B1B685B685B
:107680000198984700BF03B05DF804FB00B583B0D4
:107690000190019B1B689B680198984700BF03B04D
:1076A0005DF804FB82B001900B468DF80330019B1E
:1076B000DB689DF803201A7100BF02B0704782B0EA
:1076C0000190019BDB681B79184602B0704782B0BD
:1076D0000190019BDB6801225A7100BF02B0704724
:1076E00082B00190019BDB685B79184602B070475D
:1076F00000B585B0019000910C4B00221A700C4827
:1077000002F086FE0390039B002B01D0039B08E050
:10771000084803F01FF9084A084BD31ADB08029304
:107720000023184605B05DF804FB00BF7434002048
:10773000747D0300887E0300387E0300887D03008B
:10774000024A034BD31ADB0818467047387E030001
:10775000887D030000B587B001900B468DF803309B
:107760009DF80330002B1FD0FFF7EAFF04900023A1
:10777000059313E0059B9B000E4A13440393039B60
:107780001B881A46019B1B689A4204D1019B059AEB
:107790001A60002309E0059B01330593059A049BB9
:1077A0009A42E7D3052300E00023184607B05DF8AE
:1077B00004FB00BF3432002000B585B001900B46B9
:1077C0008DF803309DF8032001AB11461846FFF7F2
:1077D000C1FF0346002B07D1019BDB00054A134480
:1077E0000393039B1B6800E00023184605B05DF877
:1077F00004FB00BF887D030084B001900B468DF828
:107800000330019BDB00174A134402939DF80330B9
:10781000013B032B1CD801A252F823F02D78020063
:10782000357802003D7802004778020002238DF887
:107830000F3011E004238DF80F300DE0029B1B790F
:107840008DF80F3008E0029B5B798DF80F3003E074
:1078500000238DF80F3000BF9DF80F30184604B09C
:10786000704700BF887D030084B001900091002321
:107870008DF80F30019B1B7803F00403DBB2002B63
:1078800024D0019B1B78C3F30103DBB2012B02D090
:10789000022B0CD017E0009B1B68019A1288C2F3E0
:1078A0008312D2B213449A1C009B1A600BE0009B17
:1078B0001B68019A5288C2F3891292B213449A1C2F
:1078C000009B1A6000BF01238DF80F309DF80F3028
:1078D000184604B07047000000B58BB00023ADF827
:1078E00026303B4802F056F93A4802F053F93A4B39
:1078F0009B680493394B1B680693049A069B1340BC
:1079000002339B00344A13440433089304AB1946F2
:107910000898FFF7A9FF0346002B09D0049A069B9D
:10792000134002339B002C4A134404330893EDE7C1
:1079300000BF0023079311E0049B5A1C0492069A8F
:107940001340079A920001A90A44234902339B007D
:107950000B445B681360079B01330793079B012B64
:10796000EAD99DF80430C3F30103DBB2012B10D038
:10797000022B1CD1BDF80A30ADF82630BDF8063018
:10798000C3F389139BB203339A08049B13440493F3
:107990000EE0BDF80A30ADF82630BDF80430C3F370
:1079A0008313DBB21A46049B1344049300E000BF28
:1079B000084802F0FBF80590059B002B02D0049BC1
:1079C000054A9360BDF8263018460BB05DF804FBFD
:1079D0008C38002088380020743400203C3200208D
:1079E00000B585B00021074802F021F80390039B01
:1079F0000293029B83F310030193019B184605B089
:107A00005DF804FB9038002000B589B00390029126
:107A100001920093039B1B0C0693FFF7E1FF079075
:107A2000079B1904009B5A1C0A9B1340069A0A43A1
:107A30001B4902339B000B445A60009A0A9B134077
:107A400002339B00164A134404330593039B03F04F
:107A50000703D9B2059A137861F3C5031370019B2C
:107A600003F00F03D9B2059A138861F389131380C9
:107A7000029BC3F31501059A136861F39F231360FA
:107A8000059A1378012161F301031370059A1378A5
:107A90006FF38203137000BF09B05DF804FB00BFF1
:107AA0007434002000B58DB00390029113468DF818
:107AB0000730039B02330A9301238DF827300023FC
:107AC0008DF81B300DF11B03184601F0B9FA404B3D
:107AD0005A68029B1A603F4B1A683D4B99683C4BB1
:107AE0005B68CB1A134401330B9314E001213A482D
:107AF00002F014F8FFF7F0FE07900799364802F0FD
:107B00000DF8344B1A68324B9968314B5B68CB1ACD
:107B1000134401330B930A9A0B9B9A42E6D89DF8C3
:107B20002730002B48D0002305939DF80730002B09
:107B300017D09DF81430012262F301038DF8143040
:107B40009DF8143043F004038DF81430039B03F0C8
:107B50000F03DAB2BDF8143062F38913ADF81430B4
:107B600016E09DF81430022262F301038DF8143000
:107B70009DF8143043F004038DF81430039BC3F3D5
:107B800009039AB2BDF8163062F38F13ADF81630C0
:107B90000F4B5A680F4B1B68134002339B000C4A73
:107BA000134404330893059A089B1A60084B5A68DB
:107BB0000A9B1344064A53609DF81B30184601F097
:107BC00049FA9DF8273018460DB05DF804FB00BF58
:107BD000743400203C3200209038002000B58BB077
:107BE00005900491039202931F4B1B68079306AB09
:107BF000012219460298FFF755FF0346002B24D0B7
:107C0000069B023309930023089311E0089B9B0015
:107C1000039A1A44099B591C099107990B40126851
:107C2000124902339B000B445A60089B01330893AE
:107C3000089A029B9A42E9D3069A079B009313463F
:107C4000029A04990598FFF7DFFE084B1B78002B7A
:107C500005D000BF00F03EF90346002BFAD100BF6B
:107C60000BB05DF804FB00BF3C32002074340020F0
:107C700000B583B001900091002300220099019883
:107C8000FFF7ACFF00BF03B05DF804FB00B587B0A1
:107C9000039002910192019B059305AA0123029989
:107CA0000398FFF79BFF00BF07B05DF804FB00B52A
:107CB00087B00390029101920093019B0493009B73
:107CC000059304AA022302990398FFF787FF00BFD8
:107CD00007B05DF804FB00B589B0039002910192F2
:107CE0000093019B0593009B06930A9B079305AAAB
:107CF000032302990398FFF771FF00BF09B05DF8F5
:107D000004FB00B58BB00390029101920093019B9C
:107D10000593009B06930C9B07930D9B08930E9B6A
:107D2000099305AA052302990398FFF757FF00BF9F
:107D30000BB05DF804FB00B58BB00390029101928B
:107D40000093019B0493009B05930C9B06930D9B52
:107D500007930E9B08930F9B099304AA062302998D
:107D60000398FFF73BFF00BF0BB05DF804FB00007A
:107D700000B58DB0039002911346ADF806304B4B21
:107D80001B680B93BDF8063003339B0805A900223E
:107D90001846FFF787FE0346002B78D0059B0A9311
:107DA000059B02330593414B1A6805990B9B0B40C9
:107DB000D31A01339B000993BDF80630099A9A4201
:107DC0000ED3059A0B9B134002339B00384A134491
:107DD0000433BDF80620029918460FF0FBFE17E0A9
:107DE000059A0B9B134002339B00314A1344043322
:107DF000099A029918460FF0EDFE029A099BD118D4
:107E0000BDF80620099BD31A1A462A480FF0E2FE55
:107E1000039B1B0C0893FFF7E3FD0790079B1904D6
:107E20000A9B5A1C0B9B1340089A0A4320490233B1
:107E30009B000B445A600A9A0B9B134002339B0031
:107E40001B4A134404330693039B03F00703D9B280
:107E5000069A137861F3C5031370069A13886FF3BB
:107E60008F131380BDF80630C3F3090399B2069A45
:107E7000538861F38F135380069A1378022161F3BC
:107E800001031370069A13786FF382031370084B83
:107E90001B78002B05D000BF00F01CF80346002B18
:107EA000FAD100BF0DB05DF804FB00BF3C320020EA
:107EB0007434002080340020054B9A68044B5B68C2
:107EC0009A420CBF01230023DBB21846704700BF63
:107ED0007434002000B599B0FFF7EEFF0346002B85
:107EE00001D00023C0E19B4B0022C3F81824BFF34C
:107EF0004F8F00BF974B9B680493974B1B68109361
:107F0000049A109B134002339B00924A134404339B
:107F10001193002317930023169300230F9304ABB0
:107F200019461198FFF7A0FC0346002B19D0894B86
:107F3000D3F81834002B14D1864B5A68049B9A420C
:107F400005D8844B5B68834A936000238CE1049AD4
:107F5000109B134002339B007E4A13440433119359
:107F6000DDE70023159311E0049B5A1C0492109A3C
:107F70001340159A920001A90A44764902339B00E6
:107F80000B445B681360159B01331593159B012B04
:107F9000EAD99DF8043003F00303DBB2022B40F072
:107FA0009C80BDF80630C3F389139BB20D93BDF8D6
:107FB0000630C3F389139BB2502B28BF50239BB2CA
:107FC0000C930C9BC3F309039AB2BDF8063062F31D
:107FD0008F13ADF806300C9B08330B939DF80430DB
:107FE000C3F3C203DBB20F930B995C4802F01BFA98
:107FF0001790179B002B00F0D380179802F0A4FA7B
:1080000001A9169B0822179802F048FB169B08331B
:108010001693049BDA43109B134001339B000A9391
:108020000C9A0A9B9A4242D90A9B002B08D0049AC8
:10803000109B134002339B00464A1344043300E074
:10804000474B08930A9B002B02D00A9BDBB201E04E
:108050000C9BDBB28DF81F300A9B002B01D0404BEC
:1080600000E0002306930A9B002B06D00C9BDAB29B
:108070000A9BDBB2D31ADBB200E000238DF8173085
:108080009DF81F20169B0899179802F007FB9DF892
:108090001F30169A13441693069B002B16D09DF89A
:1080A0001720169B0699179802F0F8FA0EE0049A2A
:1080B000109B134002339B00264A13440433099358
:1080C000169B0C9A0999179802F0E8FA0D9B033356
:1080D0009A08049B1344049362E09DF8043003F073
:1080E0000303DBB2012B5BD1BDF80430C3F3831370
:1080F000DBB2062B28BF0623DAB2BDF8043062F3E8
:108100008913ADF80430BDF80430C3F38313DBB238
:1081100002330E939DF80430C3F3C203DBB20F9316
:108120000E9B9B0019460D4802F07DF91790179B96
:10813000002B35D0179802F007FA01A9169B0822E8
:10814000179802F0ABFA169B083316930023159389
:108150001DE000BF743400203C320020747D030019
:1081600080340020049B5A1C0492109A134002335E
:108170009B003F4A1344191D169B0422179802F0D6
:108180008DFA169B04331693159B01331593BDF896
:108190000430C3F38313DBB21A46159B9342E1D339
:1081A000179B002B40D0324BD3F810341493304B34
:1081B000D3F81834002B1BD0179802F0D4F94DE0F7
:1081C00000238DF84F301498FFF78AFA0346002BEE
:1081D00002D001238DF84F309DF84F30002B03D093
:1081E00017991498FFF738FA149BDB681B681493EF
:1081F000149B002BE4D1179802F0B5F900238DF8F9
:1082000003300DF10303184600F01AFF184BD3F8A2
:108210001834002B02D1049B154A93609DF803305B
:10822000184600F017FF19E0114BD3F810341293E1
:1082300006E01298FFF72AFA129BDB681B6812937C
:10824000129B002BF5D10B4A0B4BD31ADB081B04F6
:1082500043F0020309491846FFF70AFDFFF72CFE19
:10826000034683F00103DBB2184619B05DF804FB46
:1082700074340020D87D0300887D0300987E0300BD
:1082800000B585B00023039323E0164BD3F81034D8
:10829000029301238DF807300FE00298FFF70FFAE1
:1082A00003461A46039B934203D100238DF80730FF
:1082B00006E0029BDB681B680293029B002BECD15B
:1082C0009DF80730002B01D0039B07E0039B01338F
:1082D0000393039B092BD8DD4FF0FF33184605B0FD
:1082E0005DF804FB7434002000B585B001900B46A6
:1082F0008DF80330FFF7C4FF0390039BB3F1FF3FFA
:1083000001D1039B22E0039BDBB219460198FFF7E2
:10831000C9F9104BD3F81034002B08D10D4A019B3A
:10832000C2F81034019BDB6800221A600DE0094B93
:10833000D3F81034DA68019BDB6812681A60054BC9
:10834000D3F81034DB68019A1A60039B184605B015
:108350005DF804FB7434002000B583B00C4BD3F8F7
:10836000103401930A4B01221A7009E00198FFF7BB
:10837000AEF90198FFF77EF9019BDB681B6801935A
:10838000019B002BF2D100BF00BF03B05DF804FBDE
:108390007434002082B00190009100BF02B0704799
:1083A00010B584B003900291039BDB88002B0AD0A8
:1083B000039BDB881A461F4B009313461E4A1F4936
:1083C000029801F0C1FC039B1B7A052B2ED0039B66
:1083D0005B7A002B12D0039B9B881A46039B1B7A67
:1083E00019461046FFF708FA03461A46144B53F88D
:1083F00022301A461349029801F0A6FC039B1B6821
:1084000019460298FFF7C6FF039B1B7A1A460E4BCC
:1084100053F82240039B9B8800211846FFF7CCF9B4
:10842000034622460949029801F08EFC00BF04B0C1
:1084300010BD00BFCC7E0300DC7E0300147F030070
:10844000543200202C7F030040320020307F030094
:1084500000B585B00390029113468DF80730039B59
:108460001B7A052B0FD0039B5B7A002B06D00D4B9C
:108470001B681A460C49029801F066FC0B490298E9
:1084800001F062FC07E09DF80730002B03D007499C
:10849000029801F059FC029801F03EFC00BF05B0C3
:1084A0005DF804FB543200202C7F03003C7F030066
:1084B00030B58BB007900691059204930E9B1B7B01
:1084C0008DF827300E9B00221A730E990498FFF73F
:1084D00067FF059B062B7FD801A252F823F000BF4F
:1084E000FD84020007850200178502002B8502002B
:1084F0004985020071850200A185020007990E9846
:1085000001F022FC69E0069B1B681A4607990E9849
:1085100001F01AFC61E0069B1A68069B04331B6895
:1085200007990E9801F010FC57E0069B1A68069B0D
:1085300004331968069B08331B6800930B460799A0
:108540000E9801F001FC48E0069B1968069B043375
:108550001868069B08331B68069A0C321268019251
:10856000009303460A4607990E9801F0EDFB34E0AC
:10857000069B1868069B04331C68069B08331B681F
:10858000069A0C321268069910310968029101921C
:1085900000932346024607990E9801F0D5FB1CE094
:1085A000069B1C68069B04331D68069B08331B68EA
:1085B000069A0C3212680699103109680698143030
:1085C000006803900291019200932B46224607997E
:1085D0000E9801F0B9FB00E000BF00220E9904984C
:1085E000FFF736FF0E9B9DF827201A7300BF0BB0D4
:1085F00030BD00BF00B587B0039002910192009397
:10860000029B082B60D8009B1B7B8DF81330009BCE
:1086100000221A7300990198FFF7C2FE0023059308
:1086200014E0059A029B9A4209D2039A059B1344CF
:108630001B781A462649009801F086FB03E025497D
:10864000009801F081FB059B01330593059B072BE7
:10865000E7D92149009801F077FB0023059326E034
:10866000059A029B9A421BD2039A059B13441B78DE
:108670008DF812309DF812307E2B0AD89DF81230FA
:1086800018460FF09FFA0346002B02D09DF81230D7
:1086900000E02E231A461149009801F055FB03E033
:1086A0000F49009801F050FB059B01330593059B92
:1086B000072BD5D9012200990198FFF7C9FE009B2D
:1086C0009DF813201A7300E000BF07B05DF804FBAB
:1086D000407F0300487F03004C7F0300507F03006E
:1086E000547F030086B003900291019201238DF81C
:1086F00017309DF81730204A039B13601E4A029BD7
:1087000053601D4A019B9360039B44F20102934214
:1087100012D0039B44F20202934220D1019B164ADD
:10872000D360154BDB681B68134A9361124BDB68FF
:108730005B68114AD36112E0019B0F4A13610E4B33
:108740001B699B680C4A53610B4B1B691B680A4AE7
:108750009361094B1B695B68074AD36100BF72B61E
:1087600000BF00BF9DF81730DBB2002BFAD162B614
:1087700000BF00BF06B070479438002000B583B03A
:1087800002900091019244F2010071466A4600F0A5
:1087900003F803B000BD00BF30B58BB00790069161
:1087A000059272B600BFFFF7D7FD00BFFFF792FB3F
:1087B0000346002BFAD1079B44F2020293422FD0CA
:1087C000079B44F20202934269D8079B44F20102DC
:1087D000934237D0079B44F2010293425FD8079B34
:1087E000012B05D0079B41F2010293420CD056E0C9
:1087F000394A3A4BD31ADB081B0443F001033849CA
:108800001846FFF735FA57E0334A344BD31ADB08E2
:108810001B0443F0010333491846FFF729FA4BE0E4
:10882000059B09932C4A2D4BD31ADB081B0443F0FC
:108830000100099B5B681A46099B1B682A49FFF7E0
:1088400036FA39E0059B0893234A244BD31ADB08F8
:108850001B0443F00104089B9D68089B9B68184615
:1088600002F036F903461846089B5B681946089BD8
:108870001B68069A02920193009103462A461B49FF
:108880002046FFF73EFA144A144BD31ADB081B04A8
:1088900043F0010316491846FFF7EAF90CE00E4AC7
:1088A0000E4BD31ADB081B0443F00103069A11494F
:1088B0001846FFF7EBF900BF0F4B1B6803F00103ED
:1088C000002B00D000BE059A06990798FFF70AFF13
:1088D00000BF0BB030BD00BFD87D0300887D030012
:1088E000587F0300787F03009C7F0300B87F03005C
:1088F000E07F0300F47F0300F0ED00E02DE9F0439A
:1089000083B0144800F0E8FE034600221C461546DA
:10891000114BD3E9002314EB020845EB0309CDE921
:1089200000890E4BD3E90023DDE90001904271EB91
:10893000030307D2DDE9002312F1807643F100073B
:10894000CDE90067DDE900231046194603B0BDE814
:10895000F08300BF78320020C0380020C8380020E3
:1089600088B001900091019B0793009B0693079BA1
:10897000D3E90223CDE90423069BD3E90223CDE901
:108980000223DDE90423DDE90201904271EB0303D8
:108990002CBF01230023DBB2184608B0704700004B
:1089A000F0B585B0019000238DF80F30274B1B7870
:1089B000002B45D0019B002B42D0019B1B7FDBB2DB
:1089C000002B3DD0FFF79AFF019BD3E90223904291
:1089D00071EB03032CD3019B1B69002B02D1019B7C
:1089E00000221A77019B5B69019A926910469847A9
:1089F000019B1B69002B23D0019B1B7FDBB2002B4B
:108A00001ED0019BD3E902230199096900200C467D
:108A10000546161943EB0507019BC3E90267019B55
:108A200019460B4801F0E9FF01238DF80F3007E0EC
:108A3000019B1946064801F0E0FF01238DF80F3035
:108A40009DF80F30184605B0F0BD00BFB8380020C3
:108A50001C800300F0B589B0019000910D230793AD
:108A6000009B00221A70019BD3E90245FFF746FFE5
:108A700002460B46A61A65EB0307CDE90467DDE95C
:108A80000423012A73F100031BDB049BB3F5350FAC
:108A900005D300F057FA0246134B134403E0019B41
:108AA000D3E90223134603934FF49603039A00215C
:108AB0000E4800F01DFD0790079B002B05D10123F8
:108AC0000EE00021094800F0E1FD079B0D2B06D1C7
:108AD0000198FFF765FF03461A46009B1A700023B2
:108AE000184609B0F0BD00BFFFFFB4007832002087
:108AF00000B583B0044801F0A9FF0190019B18461E
:108B000003B05DF804FB00BF1C80030000B583B018
:108B1000044801F0B1FF0190019B184603B05DF8D5
:108B200004FB00BF1C80030000B583B0FFF7E0FF2B
:108B30000190019B002B02D0019B00221A77019B20
:108B4000002BF3D100BF00BF03B05DF804FB0000B1
:108B5000054BD3E9002312F1807043F10001024B71
:108B6000C3E9000100BF7047C038002000B583B0E2
:108B70000190084B1B68002B07D0064B1B6818465A
:108B8000FFF70EFF034B00221A6000BF03B05DF831
:108B900004FB00BFB438002000B583B00190FFF79C
:108BA000ADFE02460B460349C1E9002300BF03B0F6
:108BB0005DF804FBC838002000B585B00190FFF7D0
:108BC000A5FF039000238DF80B30039B002B48D0AA
:108BD0002B4B1B68002B03D101238DF80B3019E0C0
:108BE000039BD3E90201264B1B68D3E90223904281
:108BF00071EB03030ED201238DF80B30204B1B6861
:108C00001B7FDBB2002B05D01D4B1B6819461D488E
:108C100001F0F3FE9DF80B30002B2AD0FFF768FF20
:108C200003900DF10A0319460398FFF713FF03465B
:108C3000002B12D0124B1B68002B02D1019800F0C0
:108C40009DFB0F4A039B13609DF80A3083F00103DC
:108C5000DBB2002BB3D000BF0EE0094B00221A603C
:108C6000ADE7074B1B68002B05D1019800F093FB83
:108C700001E000BF00E000BF00BF05B05DF804FBED
:108C8000B43800201C80030000B587B001902C4A46
:108C900003AB1946104600F054FE059048E0059BD2
:108CA0001B78022B2ED0022B32DC002B02D0012BA2
:108CB00014D02DE0059B5B681B7FDBB283F00103C2
:108CC000DBB2002B26D0059B5B6801221A77059B3F
:108CD0005B6819461B4801F090FE1BE0059B5A6833
:108CE000194B1B689A4203D1174B00221A6012E0FD
:108CF000059B5B681946134801F0C6FE03468DF8D4
:108D0000133008E0FFF710FF104B01221A7002E049
:108D100000BF00E000BF0A4A03AB1946104600F04E
:108D200029FE074A03AB1946104600F00AFE0590DB
:108D3000059B002BB3D100BF00BF07B05DF804FB5B
:108D4000283900201C800300B4380020B8380020E7
:108D500000B583B00190019800F08BFC0346002B16
:108D600001D0FFF7F5FE0021019800F0A0FC0346BA
:108D7000002B02D00198FFF7F9FE0121019800F0C5
:108D800096FC0346002B02D00198FFF705FF0198DF
:108D9000FFF77AFF0198FFF70FFF00BF03B05DF800
:108DA00004FB000008B5024800F0A3FC00BF08BDAA
:108DB0007832002000B585B0034600918DF8073069
:108DC000114A02AB1946104600F08EFD0390039B3A
:108DD000002B13D0039B9DF807201A70039B009A69
:108DE0005A60094A02AB1946104600F096FD034648
:108DF000002B01D0FFF7D6FF002300E00423184624
:108E000005B05DF804FB00BF2839002000B583B031
:108E1000164B1B680093164808235822154900F08A
:108E20001CFD0190019B002B01D0019B19E06B46BA
:108E3000114A1946114800F03BFA0190019B002BA2
:108E400001D0019B0DE001210C4800F001FC012341
:108E50000B4A0121094800F0ABFA0A4B01221A70B3
:108E6000019B184603B05DF804FB00BF18800300A7
:108E700028390020D0380020518D0200783200209F
:108E8000FFFF7F00B838002086B003900B460192A8
:108E90008DF80B30019B002B01D1072310E0039BC1
:108EA0001B680593059B019A5A619DF80B30012BB5
:108EB0000CBF01230023DBB21A46059B1A61002375
:108EC000184606B07047F0B587B003900291019242
:108ED000039B0593059B1B7FDBB2002B01D0002376
:108EE0001CE0059B019A9A61FFF708FD02460B46BC
:108EF000029900200C460546161943EB0507059B11
:108F0000C3E90267059B1B69002B02D0059B029AEF
:108F10001A6105990020FFF74DFF0346184607B078
:108F2000F0BD00B585B00190019B0393039B002227
:108F30001A7703990120FFF73DFF0346184605B055
:108F40005DF804FB08B5034800F0C6FB034618466D
:108F500008BD00BF7832002082B0EFF31083009389
:108F6000009B019372B600BF019B184602B0704788
:108F700062B600BF00BF704700B585B00190FFF733
:108F8000EBFF0390164B9B68002B1BD1144B012267
:108F90009A60144BD3F88020134B1340104A13608F
:108FA000104B114AC3F880200E4BD3F884300C4A82
:108FB00053600C4B4FF0FF32C3F88420019B00221A
:108FC0001A7002E0019B01221A70039B002B01D151
:108FD000FFF7CEFF0023184605B05DF804FB00BF85
:108FE0003C39002000E100E0FC06FFBD00B585B083
:108FF00003468DF80730104B9B68002B16D09DF868
:109000000730002B12D1FFF7A7FF03900B4A0A4B42
:109010001B681360094A084B5B685360064B0022CB
:109020009A60039B002B01D1FFF7A2FF0023184693
:1090300005B05DF804FB00BF3C39002000E100E012
:1090400000B583B001900198FFF796FF00BF03B011
:109050005DF804FB00B583B003468DF807309DF83A
:1090600007301846FFF7C2FF00BF03B05DF804FBEE
:1090700082B003468DF807309DF90730002B0CDBDA
:109080009DF8073003F01F0205499DF907305B0981
:10909000012000FA02F241F8232000BF02B070471D
:1090A00000E100E082B003468DF807309DF90730FB
:1090B000002B0DDB9DF8073003F01F0206499DF9D8
:1090C00007305B09012000FA02F2403341F8232007
:1090D00000BF02B0704700BF00E100E082B003466D
:1090E00000918DF807309DF90730002B0ADB009BBB
:1090F000DAB20C499DF907305201D2B20B4483F821
:1091000000230BE0009BDAB207499DF8073003F01B
:109110000F03043B5201D2B20B441A7600BF02B0D7
:10912000704700BF00E100E000ED00E000B583B053
:1091300003460A468DF8073013468DF806309DF831
:1091400006209DF9073011461846FFF7C7FF00BFFC
:1091500003B05DF804FB00B583B003468DF807301B
:109160009DF907301846FFF783FF00BF03B05DF895
:1091700004FB000000B585B00190019B002B0AD0D4
:10918000074B43F001030393019B9B010293039B55
:109190000298984700E000BF05B05DF804FB00BFEF
:1091A0008080030084B0039002910192039B029A95
:1091B00002F5A872019943F8221000BF04B070476D
:1091C00082B001900091019B009A02F5A87253F8B9
:1091D0002230184602B0704782B001900091019B86
:1091E000009AC3F8042300BF02B0704782B0019018
:1091F0000091019B009AC3F8082300BF02B070479A
:1092000082B001900B46ADF80230BDF80230019AF1
:1092100013441B68184602B0704784B001900B4697
:10922000ADF80230BDF80230019A134400221A60F2
:10923000BDF80230019A13441B680393039B00BFDF
:1092400004B0704782B00190019BD3F804351846F2
:1092500002B0704782B001900091019B009AC3F860
:10926000082500BF02B0704782B001900B468DF810
:1092700003309DF80320019B13441A460123136019
:1092800000BF02B0704782B001900091019B009A2C
:10929000C3F8442300BF02B0704782B00190009130
:1092A000019B009AC3F8482300BF02B0704700003A
:1092B00000B587B0039002910192039B5B79194638
:1092C000284A019B42F82130039B5B79264ADB0048
:1092D00013441B79002B0ED008230593234A244BFB
:1092E000D31ADB081B0443F0020322491846FEF799
:1092F000BFFC059B32E0039B1A68029B1B88194642
:109300001046FFF7A7FF039B93F90420029B9B786D
:1093100019461046FFF70AFF039B93F904301846DD
:10932000FFF719FF039B5B790F4ADB00134401220F
:109330001A71039B5B7919460B4A039B42F8313043
:1093400000230593094A0A4BD31ADB081B0443F098
:10935000030309491846FEF78BFC059B184607B026
:109360005DF804FB483900204C390020E87D0300FB
:10937000887D0300288003004C80030000B583B083
:109380000190019B1B6800211846FFF76DFF00BF8D
:1093900003B05DF804FB00B583B00190019B1B682E
:1093A00004211846FFF760FF00BF03B05DF804FB1F
:1093B00000B587B00390029101928DF803304FF40D
:1093C0008032029B02FA03F30593029B50339BB257
:1093D0009B00ADF81230019B23F07F430193039B68
:1093E0001B6805991846FFF701FF039B1B68059949
:1093F0001846FFF752FF039B1B68BDF81220114669
:109400001846FFF70AFF039B1B68019A029918464A
:10941000FFF7C8FE039B1B6805991846FFF733FF4B
:109420009DF80330002B05D0039B1B680599184657
:10943000FFF7D2FE00BF07B05DF804FB00B585B0B2
:109440000390029113468DF80730039B1B68029925
:109450001846FFF718FF9DF80730002B05D0039B37
:109460001B6802991846FFF7B7FE00BF05B05DF80C
:1094700004FB00B583B001900091019B1B6800992B
:109480001846FFF70AFF019B1B6800991846FFF773
:10949000ADFE00BF03B05DF804FB00B583B00190E2
:1094A0000B46ADF80230019B1B68BDF80220114647
:1094B0001846FFF7A5FE0346002B09D0019B1B6849
:1094C000BDF8022011461846FFF7A7FE012300E071
:1094D0000023184603B05DF804FB82B001900091B0
:1094E000019A009BD31A23F07F43184602B07047BD
:1094F00000B58BB003900291019200934FF480323B
:10950000029B02FA03F30993029B50339BB29B0028
:10951000ADF82230019B23F07F4301930999039812
:10952000FFF7A7FF039B1B681846FFF78BFE07900A
:10953000039B1B6802991846FFF742FE0690039BA7
:109540001B68079A02991846FFF72CFE039B1B68BD
:10955000BDF8222011461846FFF75FFE07990698CE
:10956000FFF7BBFF0346012B0AD11020FFF702FED5
:10957000039B1B68BDF8222011461846FFF74DFEDD
:10958000039B1B681846FFF75DFE0790079901983B
:10959000FFF7A3FF0590039B1B6809991846FFF787
:1095A00072FE059B012B15D1039B1868019B0133AB
:1095B0001A460299FFF7F6FD1020FFF7DBFD039B2B
:1095C0001B681846FFF73EFE0246079B934235D0C4
:1095D0000D2339E0039B1B68019A02991846FFF797
:1095E000E1FD039B1B681846FFF72CFE0790019BCB
:1095F000013B07991846FFF770FF0590009BC3F1E8
:10960000FF1303F57F43059A9A4201D90D231BE00E
:10961000059B002B12D1039B1868019B01331A464E
:109620000299FFF7BFFD039B1B681846FFF70AFE70
:109630000246079B934201D00D2305E001220999C0
:109640000398FFF7FBFE002318460BB05DF804FB00
:1096500000B583B001900B468DF803309DF80330C0
:109660001A4602210198FFF7E9FE00BF03B05DF83A
:1096700004FB00B583B001904FF482710198FFF7AD
:109680000CFF0346184603B05DF804FB00B583B039
:10969000019000914FF48032009B02FA03F31946C7
:1096A0000198FFF7E6FE00BF03B05DF804FB00B5CC
:1096B00085B001900091009B50339BB29B00ADF8A8
:1096C0000E30BDF80E3019460198FFF7E6FE03464E
:1096D000184605B05DF804FB00B583B00190019B0E
:1096E0001B681846FFF7AEFD0346184603B05DF849
:1096F00004FB00B583B00190019B93F90430184638
:10970000FFF7D0FC00BF03B05DF804FB08B5044BC5
:109710001B68044A12681046984700BF08BD00BF86
:10972000483900204C39002086B001900091019BFF
:1097300053E8011F8AB2D88902449889824228BF1F
:10974000121A1889824202BFBFF32F8F002307E04D
:10975000C2EA010243E801200028E9D14FF00103E9
:109760008DF80F30059002910492029A009B1A60C6
:109770009DF80F30DBB2184606B0704784B00190F8
:10978000019951E8013FC3EA034341E80132002A4D
:10979000F7D10392029300BF04B0704786B00190E6
:1097A0000091019B53E8021F1FFAA1F2D888824260
:1097B00002BFBFF32F8F00230DE0D88902449889A0
:1097C000824228BF121AC1EA024243E8022000285E
:1097D000E8D14FF001038DF80F300590029104920B
:1097E000029A009B1A609DF80F30DBB2184606B053
:1097F000704784B00190019951E8023FC3EA2343C6
:1098000041E80232002AF7D10392029300BF04B06C
:10981000704786B00190019B53E8021FDA88B1EBD4
:10982000314F4FF0000017BF89B242EA024241EACD
:10983000024204E05968B1EB314F08BF012043E810
:1098400002210029E8D18DF80F00059104929DF8BE
:109850000F30DBB2184606B0704784B00390029117
:1098600011461A460B46ADF806301346ADF80430E3
:10987000029B002B01D10E231FE0BDF80630BDF87E
:109880000420B3FBF2F101FB02F29B1A9BB2002B06
:1098900001D0092311E0039B029A1A60039B002266
:1098A0005A60039B00229A60039BBDF806209A81B0
:1098B000039BBDF80420DA810023184604B07047EA
:1098C00000B585B001900198FFF7A3FF03468DF81E
:1098D0000F309DF80F30002B01D0002300E0112342
:1098E000184605B05DF804FB00B585B00190009105
:1098F000009B19460198FFF717FF0346002B07D07E
:10990000019B1B68009A128813440393039B00E099
:109910000023184605B05DF804FB00B583B0019044
:109920000091009B1A88009B5B889A4204D10198A1
:10993000FFF724FF012300E00023184603B05DF881
:1099400004FB00B585B001900091009B1946019879
:10995000FFF724FF0346002B07D0019B1B68009AEA
:10996000528813440393039B00E00023184605B07C
:109970005DF804FB00B583B001900091009B1A884C
:10998000009B5B889A4204D10198FFF732FF0123C4
:1099900000E00023184603B05DF804FB00B585B075
:1099A00001900091009B5B099B00019A1A44009B67
:1099B00003F01F03012101FA03F31946104600F0DA
:1099C00065F8039000BF05B05DF804FB00B585B0F5
:1099D00001900091009B5B099B00019A1A44009B37
:1099E00003F01F03012101FA03F3DB43194610467C
:1099F00000F07CF8039000BF05B05DF804FB82B076
:109A000001900091009B5B099B00019A13441A6826
:109A1000009B03F01F0322FA03F303F00103002B62
:109A200014BF01230023DBB2184602B0704710B404
:109A300087B001900091019B009A53E8004F1046B7
:109A400043E8000191F0000FF7D1059404900391D1
:109A5000059B184607B05DF8044B704710B487B0FB
:109A600001900091019B009A53E8004F44EA0200E4
:109A700043E8000191F0000FF6D1059404900391A2
:109A8000059B184607B05DF8044B704710B487B0CB
:109A900001900091019B009A53E8004F44EA0200B4
:109AA00043E8000191F0000FF6D105940490039172
:109AB000049B184607B05DF8044B704710B487B09C
:109AC00001900091019B009A53E8004F04EA0200C4
:109AD00043E8000191F0000FF6D105940490039142
:109AE000059B184607B05DF8044B704710B487B06B
:109AF00001900091019B009A53E8004F04EA020094
:109B000043E8000191F0000FF6D105940490039111
:109B1000049B184607B05DF8044B704710B487B03B
:109B200001900091019B009A53E8004F04EB020062
:109B300043E8000191F0000FF6D1059404900391E1
:109B4000049B184607B05DF8044B704710B487B00B
:109B500001900091019B009A53E8004FA4EB020092
:109B600043E8000191F0000FF6D1059404900391B1
:109B7000049B184607B05DF8044B704700B583B0EE
:109B8000019001210198FFF769FF0346184603B0D1
:109B90005DF804FB00B583B0019001210198FFF747
:109BA00075FF0346184603B05DF804FB00B583B0AB
:109BB000019000210198FFF781FF0346184603B08A
:109BC0005DF804FB82B001900B468DF80330019BD9
:109BD000DA689DF803300199098A01FB03F3134405
:109BE000184602B0704782B001900091009B019A24
:109BF000D2689B1A019A128AB3FBF2F3DBB21846C1
:109C000002B0704784B00190019B002B01D10E235C
:109C100020E0019B9A68019B5B68D31A8DF80F3096
:109C2000019B1B68019A52681A6007E0019B1A6841
:109C30001368591C11609DF80F201A709DF80F30A1
:109C40005A1E8DF80F20002BF0D1019B1B680022BB
:109C50001A710023184604B0704700B585B0019012
:109C60000023039300238DF80A300DF10A031846F0
:109C7000FFF7E6F9019B1B681A68019B5B689A4233
:109C80001FD9019B1B681A68013A1A601B681B7870
:109C900019460198FFF796FF0390019B9A68019B74
:109CA0001B681B68D31A8DF80B30019B1B681B794E
:109CB0009DF80B209A4204D9019B1B689DF80B204C
:109CC0001A719DF80A301846FFF7C4F9039B18462D
:109CD00005B05DF804FB10B584B001900091009BC5
:109CE000039300238DF80B300DF10B031846FFF79B
:109CF000A7F9019B1B681C68621C1A6003990198F4
:109D0000FFF771FF034623709DF80B301846FFF7ED
:109D1000A1F900BF04B010BD00B583B00190019B54
:109D20009B68002B0CD0019B5B69019A1069019A1A
:109D30001168019A92689847019B00229A6000E09E
:109D400000BF03B05DF804FB0EB400B584B0019011
:109D5000059B002B0AD00023039306AB039303ABB0
:109D60001A460599019800F0B5F900E000BF04B06B
:109D70005DF804EB03B0704700B583B001900B466B
:109D80008DF803309DF803300A2B03D10D21019883
:109D9000FFF7F2FF019B1A68019B9B68581C019911
:109DA000886013449DF803201A70019B9A68019BF8
:109DB0005B689A4202D30198FFF7AEFF00BF03B081
:109DC0005DF804FB00B587B0039002910192009307
:109DD00000230593009B03F00103002B24D00BE02C
:109DE000029B01330293059B013305939DF81330C9
:109DF00019460398FFF7C0FF029B1B788DF81330BC
:109E00009DF81330002BEBD106E0019B013B019341
:109E100020210398FFF7B0FF019A059B9A422ED9A3
:109E2000019B002BF1D12AE0029B002B0BD0029862
:109E30000DF02CFF059006E0019B013B01932021D2
:109E40000398FFF799FF019A059B9A420FD9019B4E
:109E5000002BF1D10BE0029B01330293059B0133F0
:109E600005939DF8133019460398FFF785FF029B71
:109E70001B788DF813309DF81330002BEBD100BF09
:109E800007B05DF804FB000000B589B003900291B3
:109E900001920093029B07930123069307E0079A20
:109EA000019BB2FBF3F30793069B01330693079ADA
:109EB000019B9A42F3D2009A069B9A4201D9009BD9
:109EC00006930B9B03F00103002B22D10A9B002B6E
:109ED0001FD00B9B03F00203002B06D0009B002B2E
:109EE00003D130238DF8173002E020238DF817308E
:109EF00008E00A9B013B0A939DF817301946039826
:109F0000FFF73AFF0A9B002B03D0069A0A9B9A425E
:109F1000EFD301230793009B012B03D9009B013B47
:109F2000009309E0029A079BB2FBF3F30493049AAF
:109F3000019B9A4200D205E0079B019A02FB03F3C2
:109F40000793E8E7029A079BB2FBF3F30493049BA1
:109F5000079A02FB03F3029AD31A0293154A049B51
:109F600013441B7819460398FFF706FF079A019BD5
:109F7000B2FBF3F30793079B002BE3D10B9B03F09A
:109F80000103002B11D00A9B002B0ED006E00A9B88
:109F9000013B0A9320210398FFF7EEFE0A9B002B5A
:109FA00003D0069A0A9B9A42F1D300BF09B05DF82C
:109FB00004FB00BF8880030000B589B005900491C0
:109FC00003920293049B002BB8BF5B4206930123CC
:109FD000079307E0039B069A92FBF3F30693079B14
:109FE00001330793039B069A9A42F3DA029A079B7E
:109FF0009A4201D9029B07930A9B002B0AD0049B2B
:10A00000002B04DB0B9B03F00403002B02D00A9B04
:10A01000013B0A930B9B03F00203002B02D0029B2F
:10A02000002B16D00B9B03F00103002B11D10A9BD0
:10A03000002B0ED006E00A9B013B0A9320210598D5
:10A04000FFF79AFE0A9B002B03D0079A0A9B9A42BD
:10A05000F1D3049B002B07DA049B5B4204932D2170
:10A060000598FFF789FE08E00B9B03F00403002B23
:10A0700003D02B210598FFF77FFE0B9B03F0020313
:10A08000002B19D00B9B03F00103002B14D1029B72
:10A09000002B11D10A9B002B0ED006E00A9B013B3E
:10A0A0000A9330210598FFF767FE0A9B002B03D027
:10A0B000079A0A9B9A42F1D304990B9B01930A9B3E
:10A0C0000093029B039A0598FFF7DEFE00BF09B0DC
:10A0D0005DF804FB00B58FB0059004910392049BDA
:10A0E000002B00F09181049B1B788DF83730049B86
:10A0F000013304939DF83730002B00F07C819DF8EC
:10A100003730252B40F06B8100230A9301230C93F9
:10A11000049B1B788DF837309DF83730302B0DD0ED
:10A12000302B1BDC2B2B11D02D2B17D10A9B43F08E
:10A1300001030A93049B0133049312E00A9B43F04A
:10A1400002030A93049B013304930AE00A9B43F041
:10A1500004030A93049B0133049302E000230C934D
:10A1600000BF0C9B002BD3D1002309939DF83730FF
:10A170002A2B0CD1039B1B68191D039A11601B68C5
:10A18000099A13440993049B013304931AE0049B36
:10A190001B788DF837309DF837302F2B12D99DF86A
:10A1A0003730392B0ED8049B01330493099A134698
:10A1B0009B0013445B001A469DF837301344303B34
:10A1C0000993D3E700230B93049B1B788DF837305A
:10A1D0009DF837302E2B1DD1049B01330493049B33
:10A1E0001B788DF837309DF837302F2B12D99DF81A
:10A1F0003730392B0ED8049B013304930B9A134646
:10A200009B0013445B001A469DF837301344303BE3
:10A210000B93E4E7049B1B788DF837309DF83730BB
:10A220006C2B03D09DF83730682B07D1049B01338A
:10A230000493049B1B788DF83730EFE79DF8373097
:10A24000252B00F0C280252BC0F2C480782B00F3B0
:10A25000C180582BC0F2BE80583B202B00F2BA8040
:10A2600001A252F823F000BF57A30200D5A30200B9
:10A27000D5A30200D5A30200D5A30200D5A30200F6
:10A28000D5A30200D5A30200D5A30200D5A30200E6
:10A29000D5A30200EDA202000FA30200D5A3020085
:10A2A000D5A30200D5A30200D5A302000FA302008C
:10A2B000D5A30200D5A30200D5A30200D5A30200B6
:10A2C000D5A30200D5A3020097A30200D5A30200E4
:10A2D000D5A302007BA30200D5A3020033A3020092
:10A2E000D5A30200D5A3020057A30200039B1B685D
:10A2F000191D039A11601B680C930C9B8DF81F307D
:10A300009DF81F3019460598FFF736FD63E0039B63
:10A310001B68191D039A11601B680C930A9B01931B
:10A32000099B00930B9B0A220C990598FFF744FEAA
:10A3300051E0039B1B68191D039A11601B680C9365
:10A340000C990A9B0193099B00930B9B0A22059889
:10A35000FFF79AFD3FE0039B1B68191D039A1160EC
:10A360001B680C930C990A9B0193099B00930B9B10
:10A3700010220598FFF788FD2DE0039B1B68191D2F
:10A38000039A11601B6808930A9B099A089905981B
:10A39000FFF718FD1FE0039B1B68191D039A11604E
:10A3A0001B680C9330210598FFF7E6FC782105988F
:10A3B000FFF7E2FC0C990023019308230093082384
:10A3C00010220598FFF760FD05E025210598FFF7AD
:10A3D000D3FC00E000BF049B0133049305E09DF82B
:10A3E000373019460598FFF7C7FC049B1B78002BF4
:10A3F0007FF479AE00E000BF059B1B7B002B04D0EF
:10A400000598FFF789FC00E000BF0FB05DF804FB82
:10A4100000B583B001900198FFF7F4FB034618469E
:10A4200003B05DF804FB00B58BB001900091019B77
:10A430001B8A043B0793009A079B1344DA1C079B73
:10A44000B2FBF3F38DF81B300198FFF706FC059083
:10A45000059B002B01D1002338E0059B00221A71D7
:10A46000059B01225A71079B9AB2059BDA80059BD6
:10A4700009939DF81B30013B0493099B019A1A60D4
:10A48000002308931DE00198FFF7E7FB0390039B6F
:10A49000002B0ED0059B5B790133DAB2059B5A7114
:10A4A000099B039A1A60039B019A1A60039B099304
:10A4B00004E0059800F00EF8002307E0089B013344
:10A4C0000893089A049B9A42DDD3059B18460BB06B
:10A4D0005DF804FB00B58BB00190019B0793079BCF
:10A4E0005B798DF81B30019B08939DF81B30013B75
:10A4F00005930023099305E0089B1B680893099BBB
:10A5000001330993099A059B9A42F5D3089B1B686E
:10A510000493019B0893002309930BE0089B1B689D
:10A52000039308990498FFF7D6FB039B0893099BB4
:10A53000013309939DF81B30099A9A42EED300BF6C
:10A5400000BF0BB05DF804FB00B585B00190019B26
:10A550000393039B043301211846FFF7DFFA00BF82
:10A5600005B05DF804FB00B587B00190019B059331
:10A57000059B043301211846FFF7E8FA03460393CD
:10A5800003AB0493049B1B78002B02D10198FFF7C7
:10A59000A1FF00BF07B05DF804FB00B591B00390C8
:10A5A000029101920093039B0993039B0F93099BD4
:10A5B000DB881A46099B5B7902FB03F3043B089393
:10A5C000099BDB880793009B1A1D079BB2FBF3F3E3
:10A5D0000E93009B0433079AB3FBF2F2079901FB39
:10A5E00002F29B1A0D93019B1A68009B1344089A70
:10A5F0009A4203D2089A009BD31A01E0019B1B6880
:10A600000C93019B0C9A1A6005E00F9B1B680F933B
:10A610000E9B013B0E930E9B002BF6D100230B9358
:10A62000079A0D9BD31A0A930A9A0C9B934228BF50
:10A6300013460A932AE0029A0B9B134406930F9A3F
:10A640000D9B1344043305939DF84830002B05D02F
:10A650000A9A059906980DF0BDFA04E00A9A06993F
:10A6600005980DF0B7FA00230D930F9B1B680F930D
:10A670000C9A0A9BD31A0C930B9A0A9B13440B93C4
:10A68000079A0C9B934228BF13460A930C9B002BFE
:10A69000D1D100BF00BF11B05DF804FB00B589B097
:10A6A0000590049103920293039B079307AA00234A
:10A6B0000093029B04990598FFF76FFF00BF09B054
:10A6C0005DF804FB00B589B00590049103920293F4
:10A6D000039B079307AA01230093029B0499059803
:10A6E000FFF75BFF00BF09B05DF804FB82B00346D3
:10A6F0008DF807309DF90730002B0DDB9DF80730F2
:10A7000003F01F0206499DF907305B09012000FA9A
:10A7100002F2603341F8232000BF02B0704700BF4F
:10A7200000E100E0BFF34F8F00BF064BDB6803F48E
:10A73000E0620449044B1343CB60BFF34F8F00BF6B
:10A7400000BFFDE700ED00E00400FA0582B00190D3
:10A75000019B5B68184602B0704782B00190019B74
:10A7600000221A60BFF35F8F00BF00BF02B07047C6
:10A7700000B585B0019001210198FFF758F90390C9
:10A78000BFF35F8F00BF039B002B0CBF012300238F
:10A79000DBB2184605B05DF804FB82B00190BFF350
:10A7A0005F8F00BF019B00221A6000BF02B070479C
:10A7B00033DF704700BF184641DF704700BF1846BF
:10A7C0004FF080430122C3F80025BFF34F8F00BF35
:10A7D00020BFFDE700B585B000238DF807300DF1EF
:10A7E00007031846FEF72CFCF1EE103A0393039B87
:10A7F00023F09F030293029BE1EE103A00BFBFF3E8
:10A800005F8F00BF2620FFF771FF9DF807301846C5
:10A81000FEF720FC00BF05B05DF804FB08B5064B51
:10A8200000221A700548FFF798FF0549054800F017
:10A83000AEF80023184608BD5C39002058390020C6
:10A84000A48003006039002000B583B0FFF7C2FF89
:10A850000AF014F90346002B03D0FFF7ADFF019077
:10A8600002E020BF40BF20BF00BF03B05DF804FB83
:10A8700000B583B00FE01C48FFF768FF0190019B13
:10A880001B681A4A1278104698470346002B27D0B7
:10A89000154800F094F81448FFF758FF0346002BC2
:10A8A000E9D1FDF759FD00BFFDF714FB0346002B6E
:10A8B000FAD10E4B1B78032B03D00C4B1B78022BC9
:10A8C00001D1FFF72FFF0AF0D9F80346002B04D07F
:10A8D000FFF76EFF009020BFFDE7FFF771FF00E07C
:10A8E00000BF03B05DF804FB60390020543900203C
:10A8F00000B583B003468DF807301348FFF738FFE3
:10A90000034683F00103DBB2002B18D19DF807301A
:10A91000042B0ED00D4B1B78002B03D00A48FFF7F9
:10A920003CFF0DE00A4A9DF807301370074B0122E7
:10A930001A70FFF79DFF0448FFF72FFF00E000BFEC
:10A9400003B05DF804FB00BF583900205C390020DB
:10A950005439002082B00190019B9B6800229A60CC
:10A96000019B9B6800221A61019B9B6800225A612F
:10A97000019B9B680022DA60019B9B6800225A6061
:10A98000019B9B6800221A6000BF02B0704782B032
:10A9900001900091019B009A1A60019B1B681A6844
:10A9A000019B5A60019B5A68019B1B685B689A4235
:10A9B00002D1019B00225A6000BF02B0704782B0F2
:10A9C0000190019B5B68002B14D0019B5B681A46C9
:10A9D000019B1B689B6813441A46019B5A60019BAC
:10A9E0005A68019B1B685B689A4204D1019B002254
:10A9F0005A6000E000BF02B0704700B585B001901A
:10AA00000091019B5B6803930FE0019B9B68039A95
:10AA10001268009910469847034683F00103DBB2A1
:10AA2000002B07D1039B1B680393039B1B68002B20
:10AA3000EBD100E000BF039B1A68009B1A60039BE8
:10AA4000009A1A6000BF05B05DF804FB84B0019065
:10AA5000019B5B681B680393019B5B681B68002B71
:10AA600006D0019B5B681A68019B5B6812681A60DC
:10AA7000039B184604B0704782B00190019B5B684D
:10AA80001B68184602B0704784B001900091002303
:10AA90008DF80B30019B5B6803930FE0039B1B68F1
:10AAA000009A9A4207D1009B1A68039B1A600123FF
:10AAB0008DF80B3006E0039B1B680393039B1B6818
:10AAC000002BEBD19DF80B30184604B07047000006
:10AAD00000B585B00190019800F00EF80390039B3B
:10AAE000002B01D0039B00E0024B184605B05DF837
:10AAF00004FB00BFBC80030086B00190164B059399
:10AB0000164B04931FE0049A059BD31ADB10DA0F4F
:10AB100013445B10DB00059A13440393039B1B68EB
:10AB20000293029A019B9A4202D9039B04930AE082
:10AB3000029A019B9A4203D2039B0833059302E0D9
:10AB4000039B5B6804E0059A049B9A42DBD30023D5
:10AB5000184606B0704700BFBC840300E4850300BC
:10AB600084B003468DF807309DF807305B08DBB2F0
:10AB70001A460D4B9B5C8DF80F309DF8073003F0A3
:10AB80000103002B04D09DF80F301B09DBB204E059
:10AB90009DF80F3003F00F03DBB28DF80E309DF8F7
:10ABA0000E30184604B07047A039002084B0034628
:10ABB0000A468DF8073013468DF806309DF80730A9
:10ABC00003F00103002B01D00F2300E0F0238DF8E8
:10ABD0000F309DF8073003F00103002B04D09DF8DF
:10ABE00006301B01DBB201E09DF806308DF80E3017
:10ABF0009DF807305B08DBB21A46114B9A5C9DF852
:10AC000007305B08DBB219469DF80F301340DAB20B
:10AC10000B4B5A549DF807305B08DBB21A46084BC1
:10AC20009A5C9DF807305B08DBB219469DF80E3040
:10AC30001343DAB2024B5A5400BF04B0704700BF4E
:10AC4000A039002084B003468DF807300023039319
:10AC500010E00D4B1A68039BDB0013440293029B28
:10AC60001B789DF807209A4201D1029B09E0039BC3
:10AC700001330393054B1B781A46039B9342E8DB91
:10AC80000023184604B07047683900206C39002052
:10AC900000B585B003460A468DF8073013468DF897
:10ACA00006309DF807301846FFF7CCFF0390039B52
:10ACB000002B0BD0039B5B68002B07D0039B5B68CA
:10ACC0009DF806109DF807201046984700BF05B074
:10ACD0005DF804FB2DE9F04F87B003460A468DF876
:10ACE0000F3013468DF80E309DF80F301846FFF7E1
:10ACF00037FF0346042B00F2C28001A252F823F072
:10AD000015AD020089AD0200A5AD0200D5AD02006F
:10AD1000EBAD02009DF80E30002B00F0AD809DF8E9
:10AD20000F3001211846FFF741FF00238DF817303F
:10AD30000DF117031846FEF783F99DF80F104FF039
:10AD400001024FF00003A1F12004C1F1200003FA39
:10AD500001F702FA04F4274322FA00F0074302FA4B
:10AD600001F6494BD3E9002346EA020100913B4337
:10AD70000193454BDDE90012C3E900129DF817303D
:10AD80001846FEF767F977E09DF80E30002B01D0EA
:10AD9000022200E000229DF80F3011461846FFF70E
:10ADA00005FF6CE09DF80E30002B0CD09DF80F30A5
:10ADB00003211846FFF7FAFE9DF80F3001211846CF
:10ADC000FFF766FF5BE09DF80F3001211846FFF7A3
:10ADD000EDFE54E09DF80E30002B4FD19DF80F3062
:10ADE00004211846FFF7E2FE48E09DF80E30002BE4
:10ADF00006D09DF80F3003211846FFF7D7FE3EE03E
:10AE00009DF80F3000211846FFF7D0FE9DF80F3057
:10AE100000211846FFF73CFF00238DF816300DF196
:10AE200016031846FEF70CF99DF80F104FF00102BB
:10AE30004FF00003A1F12006C1F1200003FA01F553
:10AE400002FA06F6354322FA00F0054302FA01F44D
:10AE50006FEA04086FEA05090B4BD3E9002308EAFF
:10AE6000020A09EA030B084BC3E900AB9DF8163050
:10AE70001846FEF7EFF802E000BF00E000BF00BF99
:10AE800007B0BDE8F08F00BF9839002000B583B04F
:10AE90000648074B1B685B0800221946FEF713F8AB
:10AEA000019000BF03B05DF804FB00BF78390020BB
:10AEB0007039002000B587B001900023059328E089
:10AEC0001C4B1A68059BDB0013440493049B1B78FE
:10AED000184601F0A9FB03468DF80F30049B5B7800
:10AEE000012B0CBF01230023DBB21A469DF80F3063
:10AEF0009A420CBF012300238DF80E30049B1B786F
:10AF00009DF80E2011461846FFF7E4FE059B01331D
:10AF10000593094B1B781A46059B9342D0DB074BE0
:10AF2000D3E90023134301D0FFF7B0FF00BF07B000
:10AF30005DF804FB683900206C3900209839002046
:10AF400000B585B001900B468DF80330019BDBB254
:10AF50001846FFF777FE0390039B1B78184601F015
:10AF600063FB03468DF80B30039B5B78012B0CBF12
:10AF700001230023DBB21A469DF80B309A420CBF26
:10AF8000012300238DF80A309DF80A30002B06D0EB
:10AF9000054BD3E90023134301D1FFF777FF00BF2F
:10AFA00005B05DF804FB00BF9839002000B58BB0F8
:10AFB00003900B4601928DF80B30019B092B01D8B1
:10AFC000072367E001F048FA034683F00103DBB290
:10AFD000002B09D001F0DCF90990099B0893089B2C
:10AFE000002B01D0089B55E02C4A039B13602C4A90
:10AFF0009DF80B3013702B4A019B13602022002117
:10B0000029480CF010FE29494FF000024FF00003D0
:10B01000C1E9002331E09DF80B30DB00039A1344B3
:10B02000079302238DF8143000238DF815309DF816
:10B0300016306FF300038DF816309DF816306FF35D
:10B0400041038DF816309DF816306FF382038DF8AA
:10B050001630079B9B788DF81530079B1B78184698
:10B0600005AB134A194601F003FA0990099B0693B0
:10B07000069B002B01D0069B0CE09DF80B305A1E5E
:10B080008DF80B20002BC6D10A4A00210A48FDF793
:10B09000FBFE034618460BB05DF804FB6839002040
:10B0A0006C39002070390020A03900209839002028
:10B0B00041AF0200B5AE0200F085030000B583B0D9
:10B0C000002301930CE00C4B1A68019BDB00134436
:10B0D0001B780121184601F03BFA019B01330193D3
:10B0E000064B1B781A46019B9342ECD3002318466B
:10B0F00003B05DF804FB00BF683900206C39002004
:10B10000BFF34F8F00BF064BDB6803F4E0620449D6
:10B11000044B1343CB60BFF34F8F00BF00BFFDE76D
:10B1200000ED00E00400FA0582B0124B1B680193A9
:10B13000114B1B680093019B082B17D1009B032B1D
:10B1400012D801A252F823F059B102005DB10200F9
:10B1500061B1020065B10200012308E0012306E0AD
:10B16000012304E0012302E0012300E0002318464C
:10B1700002B07047300100103401001082B0124B51
:10B180001B680193114B1B680093019B082B17D17F
:10B19000009B032B12D801A252F823F0ADB102009C
:10B1A000B1B10200B5B10200B9B10200012308E05B
:10B1B000012306E0012304E0012302E0012300E073
:10B1C0000023184602B0704730010010340100100F
:10B1D00082B0124B1B680193114B1B680093019BBB
:10B1E000082B17D1009B032B12D801A252F823F091
:10B1F00001B2020005B2020009B202000DB2020063
:10B20000012308E0002306E0002304E0002302E01D
:10B21000002300E00023184602B070473001001000
:10B220003401001082B0124B1B680193114B1B6854
:10B230000093019B082B17D1009B032B12D801A26E
:10B2400052F823F055B2020059B202005DB202007A
:10B2500061B20200012308E0002306E0002304E0BD
:10B26000002302E0002300E00023184602B07047EC
:10B27000300100103401001082B0124B1B680193A2
:10B28000114B1B680093019B082B17D1009B032BCC
:10B2900012D801A252F823F0A9B20200ADB2020006
:10B2A000B1B20200B5B20200012308E0002306E0BB
:10B2B000002304E0002302E0002300E000231846FE
:10B2C00002B07047300100103401001082B0124B00
:10B2D0001B680193114B1B680093019B082B17D12E
:10B2E000009B032B12D801A252F823F0FDB20200FA
:10B2F00001B3020005B3020009B30200012308E014
:10B30000002306E0002304E0002302E0002300E025
:10B310000023184602B070473001001034010010BD
:10B3200082B0124B1B680193114B1B680093019B69
:10B33000082B17D1009B032B12D801A252F823F03F
:10B3400051B3020055B3020059B302005DB30200CD
:10B35000012308E0012306E0012304E0012302E0C9
:10B36000012300E00023184602B0704730010010AE
:10B3700034010010024B034A1A6000BF704700BF3F
:10B38000803200200090D00308B5FFF7CDFE0346C1
:10B39000002B0ED04FF080430022C3F80C214FF059
:10B3A00080430022C3F810214FF080430022C3F8ED
:10B3B0003825FFF7E3FE0346002B76D04FF080538D
:10B3C000944AD3F80434C2F820354FF08053914AA0
:10B3D000D3F80834C2F824354FF080538D4AD3F89F
:10B3E0000C34C2F828354FF080538A4AD3F8103411
:10B3F000C2F82C354FF08053864AD3F81434C2F883
:10B4000030354FF08053834AD3F81834C2F83435BE
:10B410004FF080537F4AD3F81C34C2F840354FF0C8
:10B4200080537C4AD3F82034C2F844354FF080531F
:10B43000784AD3F82434C2F848354FF08053754A1F
:10B44000D3F82834C2F84C354FF08053714AD3F802
:10B450002C34C2F850354FF080536E4AD3F8303454
:10B46000C2F854354FF080536A4AD3F83434C2F8E6
:10B4700060354FF08053674AD3F83834C2F86435EA
:10B480004FF08053634AD3F83C34C2F868354FF02C
:10B490008053604AD3F84034C2F86C354FF0805383
:10B4A0005C4AD3F84434C2F87035FFF791FE034686
:10B4B000002B02D0584B594A1A60FFF7B3FE0346DF
:10B4C000002B03D0564BFB22C3F81825FFF7D4FE00
:10B4D0000346002B0AD0534B1B6823F00F02524B3C
:10B4E0001B6803F00F034F4913430B60FFF7EEFE99
:10B4F0000346002B03D04D4B4FF400721A60FFF748
:10B500000FFF0346002B0DD04FF08043D3F80034DB
:10B5100003F00103002B05D04FF080436FF00102D0
:10B52000C3F80024424BD3F88830414A43F47003F7
:10B53000C2F88830BFF34F8F00BFBFF36F8F00BFDB
:10B540004FF01023D3F80C3203F00103012B25D167
:10B55000384B0122C3F8042500BF364BD3F8003422
:10B56000002BFAD04FF01023D3F80C324FF01022FA
:10B5700023F00103C2F80C3200BF2E4BD3F8003485
:10B58000002BFAD02B4B0022C3F8042500BF294B17
:10B59000D3F80034002BFAD0FFF7B2FD4FF01023A0
:10B5A000D3F80032002B05DB4FF01023D3F8043220
:10B5B000002B2BDA1F4B0122C3F8042500BF1D4BC3
:10B5C000D3F80034002BFAD04FF010231222C3F826
:10B5D000002200BF174BD3F80034002BFAD04FF0F5
:10B5E00010231222C3F8042200BF124BD3F80034F8
:10B5F000002BFAD00F4B0022C3F8042500BF0D4BDF
:10B60000D3F80034002BFAD0FFF77AFDFFF7B2FE33
:10B6100000BF08BD00C000408C56004048810300B8
:10B6200000F00040E40E0040580200104096024036
:10B6300000ED00E000E0014084B001904FF0FF33E6
:10B640000293002303930AE02D231A46019B9342A1
:10B6500002D1039B029305E0039B01330393039BF9
:10B66000002BF1D0029B184604B0704782B003460D
:10B670008DF807309DF90730002B13DB9DF807305C
:10B6800003F01F0209499DF907305B09012000FA08
:10B6900002F2203341F82320BFF34F8F00BFBFF3E6
:10B6A0006F8F00BF00BF02B0704700BF00E100E035
:10B6B000044BD3F80034002B14BF01230023DBB26A
:10B6C000184670470000014008B5FFF7F1FF034638
:10B6D00083F00103DBB2002B04D000F041FA024BEF
:10B6E00000229A7000BF08BDC039002000B583B0A9
:10B6F00000230193184B1B78002B02D08523019364
:10B700001CE0154B00229A60134B00225A60124B2A
:10B7100000221A61104B0022DA60104800F0FEF996
:10B72000019009F0ABF9034683F00103DBB2002B73
:10B7300001D000F00DFA084B01221A70FFF7B8FF94
:10B740000346002B02D0044B01229A70019B18463D
:10B7500003B05DF804FB00BFC03900200DB8020043
:10B7600084B00190019B1B680393039B002B03D0C3
:10B77000039B1A68019B1A60039B184604B070472C
:10B7800000B583B000238DF807300DF1070318468C
:10B79000FDF756FC094BDB68013B084AD360074BB9
:10B7A000DB68002B01D1FFF78FFF9DF807301846AB
:10B7B000FDF750FC00BF03B05DF804FBC03900206A
:10B7C00000B585B003468DF807309DF80730002B93
:10B7D00002D10C4B039301E00B4B03930398FFF74B
:10B7E000BFFF0290029B002B06D0029B5B689DF876
:10B7F000072010469847F1E700BF00BF05B05DF88D
:10B8000004FB00BFC8390020D039002000B583B048
:10B8100003468DF807309DF80730002B05D10A4B01
:10B8200001225A700020FFF7CBFF9DF80730012B53
:10B8300005D1054B01229A700120FFF7C1FF00BF1F
:10B8400003B05DF804FB00BFC039002000B583B031
:10B8500001900091019B002B05D1054B01225A70EC
:10B860000020FFF7ADFF00BF03B05DF804FB00BF91
:10B87000C039002000B585B0034600918DF807302F
:10B880009DF80730032B29D0032B2CDC002B02D092
:10B89000012B04D027E00020FFF7E8FE24E000237E
:10B8A0008DF80F300DF10F031846FDF7C9FB104B53
:10B8B0001B7883F00103DBB2002B01D0FFF716FFEA
:10B8C0000B4BDB6801330A4AD360094B01229A70A3
:10B8D0009DF80F301846FDF7BDFB05E000F038F984
:10B8E000FFF74EFF00E000BF00BF05B05DF804FBAE
:10B8F000C039002082B003468DF807309DF907302B
:10B90000002B0CDB9DF8073003F01F0205499DF961
:10B9100007305B09012000FA02F241F8232000BF42
:10B9200002B0704700E100E082B0034600918DF85C
:10B9300007309DF90730002B0ADB009BDAB20C4977
:10B940009DF907305201D2B20B4483F800230BE07B
:10B95000009BDAB207499DF8073003F00F03043B60
:10B960005201D2B20B441A7600BF02B0704700BF3A
:10B9700000E100E000ED00E082B00190019B1B0BB4
:10B980005BB2184602B0704700B583B003460A4662
:10B990008DF8073013468DF806309DF806209DF986
:10B9A000073011461846FFF7BFFF00BF03B05DF830
:10B9B00004FB00B583B003468DF807309DF90730CE
:10B9C0001846FFF797FF00BF03B05DF804FB0000C7
:10B9D00082B003468DF807300F4A9DF90730002BDF
:10B9E00000DA1F335B115BB252F823209DF9073058
:10B9F000594203F01F0301F01F0158BF4B425BB2D5
:10BA000022FA03F303F00103002B14BF01230023E8
:10BA1000DBB2184602B0704700E100E082B001904E
:10BA20004FF08042019BC2F8083300BF02B070475C
:10BA300082B003468DF807309DF8073003F180434C
:10BA400001221A6000BF02B0704784B00346ADF80F
:10BA50000630BDF8063003F1804300221A60BDF8BD
:10BA6000063003F180431B680393039B00BF04B0BF
:10BA7000704782B00346ADF80630BDF8063003F1DA
:10BA800080431B68002B14BF01230023DBB2184640
:10BA900002B0704782B001904FF08042019BC2F823
:10BAA000183500BF02B070474FF08043D3F8183408
:10BAB0001B0C03F00103002B14BF01230023DBB296
:10BAC0001846704700B583B006238DF807304FF055
:10BAD0008040FFF751FF03461846FFF779FF034602
:10BAE00083F00103DBB2002B13D04FF08040FFF74F
:10BAF00043FF03461A469DF8073019461046FFF7E4
:10BB000043FF4FF08040FFF737FF03461846FFF72B
:10BB100050FF00BF03B05DF804FB000084B001904B
:10BB200000230393094B1B79002B02D08523039339
:10BB300008E0064A019B1360044B01221A71034B73
:10BB400000225A71039B184604B07047D439002074
:10BB500008B5FFF7B7FF0120FFF79CFF00BF08BD46
:10BB600008B50220FFF75AFF4FF48270FFF76DFF10
:10BB70000C20FFF75DFF00BFFFF796FF0346002B89
:10BB8000FAD100BF00BF08BD08B54FF48070FFF7C1
:10BB900070FF0346002B14D04FF48070FFF755FF61
:10BBA0000120FFF73BFF114B5B7983F00103DBB210
:10BBB000002B06D00D4B01225A710C4B1B68002044
:10BBC00098474FF48270FFF754FF0346002B0AD0CA
:10BBD0004FF48270FFF739FF0220FFF71FFF034B7E
:10BBE0001B680120984700BF08BD00BFD439002062
:10BBF00082B003468DF807309DF90730002B0CDB2F
:10BC00009DF8073003F01F0205499DF907305B09D5
:10BC1000012000FA02F241F8232000BF02B0704771
:10BC200000E100E082B0034600918DF807309DF9F5
:10BC30000730002B0ADB009BDAB20C499DF9073074
:10BC40005201D2B20B4483F800230BE0009BDAB21E
:10BC500007499DF8073003F00F03043B5201D2B2AD
:10BC60000B441A7600BF02B0704700BF00E100E04D
:10BC700000ED00E082B00190019B1B0B5BB2184607
:10BC800002B0704700B583B003460A468DF807300E
:10BC900013468DF806309DF806209DF907301146B1
:10BCA0001846FFF7BFFF00BF03B05DF804FB00B507
:10BCB00083B003468DF807309DF907301846FFF72B
:10BCC00097FF00BF03B05DF804FB00B583B00346E7
:10BCD000ADF80630BDF80630184600F026F80346E9
:10BCE0001B68012B0CBF01230023DBB2184603B0F5
:10BCF0005DF804FB00B585B00346ADF80630BDF82D
:10BD00000630184600F011F803461A460023136067
:10BD1000BDF80630184600F008F803461B68039388
:10BD2000039B00BF05B05DF804FB82B00346ADF88D
:10BD30000630BDF8063003F1804303F5C0431846D2
:10BD400002B0704782B00190034A019BC2F80433ED
:10BD500000BF02B0704700BF0060004082B0019099
:10BD6000034BD3F80423019B1340184602B07047DD
:10BD70000060004082B00190084A019B03F5A27365
:10BD800052F82330054943F00102019B03F5A273E9
:10BD900041F8232000BF02B0704700BF00600040A0
:10BDA00084B00390029113468DF80730144A039B28
:10BDB00003F5A27352F82330114923F44F3323F4CF
:10BDC0004073039A02F5A27241F822300C4A039B99
:10BDD00003F5A27352F82320029B1B0203F47C514B
:10BDE0009DF807301B0403F440330B4304491A4306
:10BDF000039B03F5A27341F8232000BF04B07047F2
:10BE00000060004082B00190054A019B03F5A273D7
:10BE100052F823301B0A03F03F03184602B0704764
:10BE20000060004082B00190064A019B03F5A273B6
:10BE300052F823301B0C03F00303DBB2184602B0A8
:10BE4000704700BF0060004082B00190019B1B68FA
:10BE50001F2B02D84FF0A04306E0019B1B6803F0A4
:10BE60001F02019B1A60024B184602B0704700BFC8
:10BE70000003005000B585B00190084611461A46EF
:10BE800003468DF803300B468DF8023013468DF8CB
:10BE9000013001AB1846FFF7D7FF03909DF8032050
:10BEA0009DF802305B001A439DF801309B001A4355
:10BEB0009DF818301B0242EA03019DF81C301B0458
:10BEC000019A1943039B02F5E07243F8221000BF68
:10BED00005B05DF804FB00B585B003900B468DF806
:10BEE0000B309DF80B3000220192002200920022BC
:10BEF00000210398FFF7BEFF00BF05B05DF804FB0B
:10BF000000B585B0019001AB1846FFF79DFF039087
:10BF1000019A039B02F5E07253F8223023F00203EA
:10BF20000293019A039B02F5E072029943F82210F2
:10BF300000BF05B05DF804FB00B585B001900B466D
:10BF40008DF8033001AB1846FFF77EFF0390019A8E
:10BF5000039B02F5E07253F82230019A23F440313A
:10BF6000039B02F5E07243F82210019A039B02F54D
:10BF7000E07253F822309DF8032012041146019A12
:10BF80001943039B02F5E07243F8221000BF05B08D
:10BF90005DF804FB00B585B0019001AB1846FFF7D2
:10BFA00053FF0390039800F020F80246019B22FA09
:10BFB00003F303F00103184605B05DF804FB00B578
:10BFC00085B0019001AB1846FFF73EFF0390019A40
:10BFD000039B02F5E07253F822301B0C03F00303BD
:10BFE000DBB2184605B05DF804FB82B00190019BFE
:10BFF000D3F81035184602B07047000088B003909F
:10C0000002910192164A05AB92E8030083E803000F
:10C01000039B079319E0079B9B0020336B4453F865
:10C020000C3CD3F82025019B1A60079B9B00203312
:10C030006B4453F80C3C019A1268C3F82025019B0D
:10C0400004330193079B01330793039A029B134424
:10C05000079A9A42DFD300BF00BF08B0704700BF05
:10C060000486030000B585B0019001AB1846FFF7C8
:10C07000EBFE0390019B012202FA03F31A46039B95
:10C08000C3F8202500BF05B05DF804FB84B0019023
:10C09000019B5B09029300230393029B002B03D0B7
:10C0A000029B012B04D007E04FF0FF33039303E022
:10C0B0004FF6FF73039300BF019B03F01F0301932F
:10C0C000039A019B22FA03F303F00103002B14BF30
:10C0D00001230023DBB2184604B0704784B00190FE
:10C0E0000091009B0393019BDB080293019B03F0EB
:10C0F000070301930122019B02FA03F30399029AB9
:10C100000A4412781340184604B0704784B0019076
:10C110000091009B0393019BDB080293019B03F0BA
:10C1200007030193039A029B13441B785AB201211F
:10C13000019B01FA03F35BB2134359B2039A029BCA
:10C140001344CAB21A7000BF04B0704782B00190A5
:10C150000C4A019B1344303393F90030002B09DB68
:10C16000084A019B1344303393F90030072B01DC5C
:10C17000012300E0002303F00103DBB2184602B004
:10C18000704700BFDC39002082B00190064A019B55
:10C190001344303393F90030072BCCBF0123002325
:10C1A000DBB2184602B07047DC39002082B0019043
:10C1B000064A019B1344303393F90030DB43DBB272
:10C1C000DB09DBB2184602B0704700BFDC39002043
:10C1D00084B00390029101928DF80330029B59B212
:10C1E0000E4A039B134430330A461A700B49029BD4
:10C1F000019A41F823209DF8033083F00103DBB25C
:10C20000002B08D0029B083B039A51B2034A134407
:10C210000A4683F8602000BF04B07047DC39002074
:10C2200082B00190044A019B13443033FF221A70FC
:10C2300000BF02B0704700BFDC39002000B583B0FA
:10C24000019004490198FFF761FF00BF03B05DF85A
:10C2500004FB00BF403A002082B00190044A019BD9
:10C260001344303393F90030184602B0704700BFD2
:10C27000DC39002082B00190034A019B52F8233040
:10C28000184602B0704700BFDC39002084B001902E
:10C29000074A019B1344603393F900308DF80F3047
:10C2A0009DF80F3023F0C003184604B0704700BF5C
:10C2B000DC39002084B00190074A019B13446033AD
:10C2C00093F900308DF80F309DF80F309B09DBB2E9
:10C2D000184604B0704700BFDC39002000B589B0B3
:10C2E0000390029113468DF80730FF238DF81F301D
:10C2F0009DF80730002B01D0002300E008230593B0
:10C300009DF80730002B01D0082300E00C23049394
:10C31000059B069314E00F4A069B52F82330B3F1B5
:10C32000FF3F0AD19DF80730029A06990398FFF75C
:10C330004FFF069B8DF81F3006E0069B01330693E6
:10C34000069A049B9A42E6D39DF91F30184609B01D
:10C350005DF804FBDC39002082B003468DF807301D
:10C360009DF80730094A4FF0FF3142F823109DF83D
:10C370000730072B07D99DF80730083B034A1344C1
:10C38000FF2283F8602000BF02B07047DC39002034
:10C3900000B583B02D4B93F86A30002B03D00823EF
:10C3A0000093009B4EE000238DF8073011E09DF8CC
:10C3B00007301846FFF76AFE0346002B04D09DF8AD
:10C3C00007301846FFF72CFF9DF8073001338DF832
:10C3D00007309DF807302F2BE9D900238DF807305F
:10C3E00009E09DF807301846FFF7B6FF9DF80730C3
:10C3F00001338DF807309DF807300B2BF1D9062259
:10C40000002113480BF00FFC1248FFF733FC0346E2
:10C4100006211846FFF736FC0E48FFF72BFC0346B3
:10C420001846FFF744FC4FF4BE70FFF763FC4FF073
:10C430000040FFF787FC054B012283F86A200023A8
:10C440000093009B184603B05DF804FBDC39002024
:10C45000403A002000600040044B93F86A30002B03
:10C4600014BF01230023DBB218467047DC390020DB
:10C4700000B587B0039002910192002305930398C1
:10C48000FFF794FE0346002B02D00823059357E0E4
:10C49000029B9B78C3F34003DBB21A4601990398D1
:10C4A000FFF71CFF03468DF813309DF91330B3F1ED
:10C4B000FF3F43D0029B9B78C3F38003DBB283F042
:10C4C0000103DBB2002B13D0029B9B7803F0010326
:10C4D000DBB2002B03D00398FFF712FD05E0029BAF
:10C4E0005B7819460398FFF7F6FC0398FFF7A6FE62
:10C4F000029B9B7803F00203DBB2002B08D09DF96E
:10C500001300029B1B781A460399FFF749FC17E0BA
:10C510009DF91330083B0D4A134493F96010029BB8
:10C520001B789B015AB29DF91330083B0A4351B264
:10C53000064A13440A4683F8602001E00423059369
:10C54000059B184607B05DF804FB00BFDC390020EE
:10C5500000B589B001900B468DF803300198FFF7C4
:10C5600013FE0346002B2AD00198FFF775FE034601
:10C57000083B1846FFF79EFE03468DF80F309DF8E6
:10C580000F30032B0BD10198FFF704FD0346002B5E
:10C5900001D0032300E002238DF81F3008E09DF84E
:10C5A0000F30012B01D1022300E003238DF81F304F
:10C5B0009DF81F3019460198FFF7BEFC30E0019846
:10C5C000FFF7C4FD0346002B2AD00198FFF744FE75
:10C5D00003460693069B9BB240339BB29B00ADF88B
:10C5E0001630069B1846FFF7C5FBBDF816301846F7
:10C5F000FFF780FB9DF80330002B11D00198FFF767
:10C600002BFE03461846FFF735FE0490049B002BD3
:10C6100006D00122069B02FA03F31846FFF792FBAD
:10C6200000BF09B05DF804FB00B583B0019001982C
:10C63000FFF7B0FC0346002B14BF01230023DBB23D
:10C64000184603B05DF804FB00B585B00190019A6F
:10C6500002210020FFF7D2FC002303930BE0039B91
:10C660009B00019A13441B68002B01D0012306E0B4
:10C67000039B01330393039B012BF0D9002318463E
:10C6800005B05DF804FB000000B587B00190002301
:10C6900005935BE0344A059B1344603393F9003003
:10C6A000B3F1FF3F4ED00598FFF7F0FD04900199DC
:10C6B0000498FFF713FD0346002B44D00598FFF7BD
:10C6C000F9FD03468DF80F300498FFF778FC034618
:10C6D0008DF80E309DF80E30022B01D1032300E0BF
:10C6E00002238DF80D309DF80D3019460498FFF7A0
:10C6F00023FC0498FFF7B6FC0498FFF7ADFD034652
:10C700001846FFF7B7FD0290029B002B1BD09DF847
:10C710000F30032B0FD09DF80E30022B03D19DF864
:10C720000F30012B07D09DF80E30032B0BD19DF855
:10C730000F30022B07D19DF80F20029B1146049861
:10C74000984700E000BF059B01330593059B032B31
:10C75000A0D90198FFF778FF0346002B97D100BFBF
:10C7600000BF07B05DF804FBDC39002000B58BB0DA
:10C770000023089301AB00221A605A604FF48073C3
:10C78000ADF81A30012309930023079321E0BDF887
:10C790001A301846FFF799FA0346002B0ED0099875
:10C7A000FFF7DCFA0346002B08D0BDF81A30184614
:10C7B000FFF7A0FA089A099B13430893099B5B00B3
:10C7C0000993BDF81A300433ADF81A30079B0133D2
:10C7D0000793079B072BDAD94FF4BE70FFF775FA62
:10C7E0000346002B0DD04FF4BE70FFF783FA089B71
:10C7F00043F00043089301AB1A4602210020FFF7E3
:10C80000FDFB089BDBB2002B29D0012309930023F9
:10C81000079321E0099A089B1340002B16D0079834
:10C82000FFF7F0FA05900798FFF7FCFA03468DF83A
:10C8300013300798FFF71EFD0390039B002B05D0D4
:10C840009DF81320039B114605989847099B5B00B0
:10C850000993079B01330793079B072BDAD9089BA2
:10C86000002B03DA01AB1846FFF70EFF00BF0BB039
:10C870005DF804FB08B5024B1B68984700BF08BD74
:10C88000483A002082B00190019B044A934201D1B2
:10C89000034B00E00023184602B070470020004020
:10C8A000483A002000B587B0019000910198FFF749
:10C8B000E9FF0490049B002B25D000238DF817304E
:10C8C00000238DF80B300DF10B031846FCF7B8FB75
:10C8D000049B1B79002B03D001238DF8173005E052
:10C8E000049B009A1A60049B01221A719DF80B3078
:10C8F0001846FCF7AFFB9DF81730002B03D011232F
:10C900000393039B02E000230393039B184607B0A5
:10C910005DF804FB00B585B001900198FFF7B2FF08
:10C920000390039B002B05D0039B00221A60039BFE
:10C9300000221A7100BF05B05DF804FB82B0034607
:10C940008DF807309DF90730002B0CDB9DF8073080
:10C9500003F01F0205499DF907305B09012000FA29
:10C9600002F241F8232000BF02B0704700E100E06E
:10C9700082B003468DF807309DF90730002B13DB9A
:10C980009DF8073003F01F0209499DF907305B0944
:10C99000012000FA02F2203341F82320BFF34F8F29
:10C9A00000BFBFF36F8F00BF00BF02B0704700BF72
:10C9B00000E100E082B003468DF807309DF90730B2
:10C9C000002B0DDB9DF8073003F01F0206499DF98F
:10C9D00007305B09012000FA02F2603341F823209E
:10C9E00000BF02B0704700BF00E100E082B0034624
:10C9F00000918DF807309DF90730002B0ADB009B72
:10CA0000DAB20C499DF907305201D2B20B4483F8D7
:10CA100000230BE0009BDAB207499DF8073003F0D2
:10CA20000F03043B5201D2B20B441A7600BF02B08E
:10CA3000704700BF00E100E000ED00E082B001902F
:10CA4000019B03F06043B3F1005F0CBF012300239F
:10CA5000DBB2184602B0704782B00190019B1B0BFD
:10CA60005BB2184602B0704700B583B003460A4671
:10CA70008DF8073013468DF806309DF806209DF995
:10CA8000073011461846FFF7B1FF00BF03B05DF84D
:10CA900004FB00B583B003468DF807309DF90730DD
:10CAA0001846FFF74BFF00BF03B05DF804FB00B56D
:10CAB00083B003468DF807309DF907301846FFF71D
:10CAC00057FF00BF03B05DF804FB00B583B0034619
:10CAD0008DF807309DF907301846FFF76BFF00BF50
